{
	"data": {
		"bytecode": {
			"linkReferences": {},
			"object": "60806040523480156200001157600080fd5b5060405162000967380380620009678339818101604052810190620000379190620001b4565b82600080018190555081600060010190805190602001906200005b9291906200006f565b5080600060020181905550505050620003d7565b8280546200007d90620002ce565b90600052602060002090601f016020900481019282620000a15760008555620000ed565b82601f10620000bc57805160ff1916838001178555620000ed565b82800160010185558215620000ed579182015b82811115620000ec578251825591602001919060010190620000cf565b5b509050620000fc919062000100565b5090565b5b808211156200011b57600081600090555060010162000101565b5090565b600062000136620001308462000258565b6200022f565b9050828152602081018484840111156200015557620001546200039d565b5b6200016284828562000298565b509392505050565b600082601f83011262000182576200018162000398565b5b8151620001948482602086016200011f565b91505092915050565b600081519050620001ae81620003bd565b92915050565b600080600060608486031215620001d057620001cf620003a7565b5b6000620001e0868287016200019d565b935050602084015167ffffffffffffffff811115620002045762000203620003a2565b5b62000212868287016200016a565b925050604062000225868287016200019d565b9150509250925092565b60006200023b6200024e565b905062000249828262000304565b919050565b6000604051905090565b600067ffffffffffffffff82111562000276576200027562000369565b5b6200028182620003ac565b9050602081019050919050565b6000819050919050565b60005b83811015620002b85780820151818401526020810190506200029b565b83811115620002c8576000848401525b50505050565b60006002820490506001821680620002e757607f821691505b60208210811415620002fe57620002fd6200033a565b5b50919050565b6200030f82620003ac565b810181811067ffffffffffffffff8211171562000331576200033062000369565b5b80604052505050565b7f4e487b7100000000000000000000000000000000000000000000000000000000600052602260045260246000fd5b7f4e487b7100000000000000000000000000000000000000000000000000000000600052604160045260246000fd5b600080fd5b600080fd5b600080fd5b600080fd5b6000601f19601f8301169050919050565b620003c8816200028e565b8114620003d457600080fd5b50565b61058080620003e76000396000f3fe608060405234801561001057600080fd5b50600436106100365760003560e01c80636cc014de1461003b578063a70d5a1b1461005b575b600080fd5b610043610077565b60405161005293929190610351565b60405180910390f35b6100756004803603810190610070919061029a565b610117565b005b600080600001549080600101805461008e9061044d565b80601f01602080910402602001604051908101604052809291908181526020018280546100ba9061044d565b80156101075780601f106100dc57610100808354040283529160200191610107565b820191906000526020600020905b8154815290600101906020018083116100ea57829003601f168201915b5050505050908060020154905083565b60006040518060600160405280858152602001848152602001838152509050806000808201518160000155602082015181600101908051906020019061015e929190610172565b506040820151816002015590505050505050565b82805461017e9061044d565b90600052602060002090601f0160209004810192826101a057600085556101e7565b82601f106101b957805160ff19168380011785556101e7565b828001600101855582156101e7579182015b828111156101e65782518255916020019190600101906101cb565b5b5090506101f491906101f8565b5090565b5b808211156102115760008160009055506001016101f9565b5090565b6000610228610223846103b4565b61038f565b90508281526020810184848401111561024457610243610513565b5b61024f84828561040b565b509392505050565b600082601f83011261026c5761026b61050e565b5b813561027c848260208601610215565b91505092915050565b60008135905061029481610533565b92915050565b6000806000606084860312156102b3576102b261051d565b5b60006102c186828701610285565b935050602084013567ffffffffffffffff8111156102e2576102e1610518565b5b6102ee86828701610257565b92505060406102ff86828701610285565b9150509250925092565b6000610314826103e5565b61031e81856103f0565b935061032e81856020860161041a565b61033781610522565b840191505092915050565b61034b81610401565b82525050565b60006060820190506103666000830186610342565b81810360208301526103788185610309565b90506103876040830184610342565b949350505050565b60006103996103aa565b90506103a5828261047f565b919050565b6000604051905090565b600067ffffffffffffffff8211156103cf576103ce6104df565b5b6103d882610522565b9050602081019050919050565b600081519050919050565b600082825260208201905092915050565b6000819050919050565b82818337600083830152505050565b60005b8381101561043857808201518184015260208101905061041d565b83811115610447576000848401525b50505050565b6000600282049050600182168061046557607f821691505b60208210811415610479576104786104b0565b5b50919050565b61048882610522565b810181811067ffffffffffffffff821117156104a7576104a66104df565b5b80604052505050565b7f4e487b7100000000000000000000000000000000000000000000000000000000600052602260045260246000fd5b7f4e487b7100000000000000000000000000000000000000000000000000000000600052604160045260246000fd5b600080fd5b600080fd5b600080fd5b600080fd5b6000601f19601f8301169050919050565b61053c81610401565b811461054757600080fd5b5056fea2646970667358221220991879fc6a1be7c0fa074c20888b3e44e2fcc9f082a4deb2092025b35d04b75664736f6c63430008070033",
			"opcodes": "PUSH1 0x80 PUSH1 0x40 MSTORE CALLVALUE DUP1 ISZERO PUSH3 0x11 JUMPI PUSH1 0x0 DUP1 REVERT JUMPDEST POP PUSH1 0x40 MLOAD PUSH3 0x967 CODESIZE SUB DUP1 PUSH3 0x967 DUP4 CODECOPY DUP2 DUP2 ADD PUSH1 0x40 MSTORE DUP2 ADD SWAP1 PUSH3 0x37 SWAP2 SWAP1 PUSH3 0x1B4 JUMP JUMPDEST DUP3 PUSH1 0x0 DUP1 ADD DUP2 SWAP1 SSTORE POP DUP2 PUSH1 0x0 PUSH1 0x1 ADD SWAP1 DUP1 MLOAD SWAP1 PUSH1 0x20 ADD SWAP1 PUSH3 0x5B SWAP3 SWAP2 SWAP1 PUSH3 0x6F JUMP JUMPDEST POP DUP1 PUSH1 0x0 PUSH1 0x2 ADD DUP2 SWAP1 SSTORE POP POP POP POP PUSH3 0x3D7 JUMP JUMPDEST DUP3 DUP1 SLOAD PUSH3 0x7D SWAP1 PUSH3 0x2CE JUMP JUMPDEST SWAP1 PUSH1 0x0 MSTORE PUSH1 0x20 PUSH1 0x0 KECCAK256 SWAP1 PUSH1 0x1F ADD PUSH1 0x20 SWAP1 DIV DUP2 ADD SWAP3 DUP3 PUSH3 0xA1 JUMPI PUSH1 0x0 DUP6 SSTORE PUSH3 0xED JUMP JUMPDEST DUP3 PUSH1 0x1F LT PUSH3 0xBC JUMPI DUP1 MLOAD PUSH1 0xFF NOT AND DUP4 DUP1 ADD OR DUP6 SSTORE PUSH3 0xED JUMP JUMPDEST DUP3 DUP1 ADD PUSH1 0x1 ADD DUP6 SSTORE DUP3 ISZERO PUSH3 0xED JUMPI SWAP2 DUP3 ADD JUMPDEST DUP3 DUP2 GT ISZERO PUSH3 0xEC JUMPI DUP3 MLOAD DUP3 SSTORE SWAP2 PUSH1 0x20 ADD SWAP2 SWAP1 PUSH1 0x1 ADD SWAP1 PUSH3 0xCF JUMP JUMPDEST JUMPDEST POP SWAP1 POP PUSH3 0xFC SWAP2 SWAP1 PUSH3 0x100 JUMP JUMPDEST POP SWAP1 JUMP JUMPDEST JUMPDEST DUP1 DUP3 GT ISZERO PUSH3 0x11B JUMPI PUSH1 0x0 DUP2 PUSH1 0x0 SWAP1 SSTORE POP PUSH1 0x1 ADD PUSH3 0x101 JUMP JUMPDEST POP SWAP1 JUMP JUMPDEST PUSH1 0x0 PUSH3 0x136 PUSH3 0x130 DUP5 PUSH3 0x258 JUMP JUMPDEST PUSH3 0x22F JUMP JUMPDEST SWAP1 POP DUP3 DUP2 MSTORE PUSH1 0x20 DUP2 ADD DUP5 DUP5 DUP5 ADD GT ISZERO PUSH3 0x155 JUMPI PUSH3 0x154 PUSH3 0x39D JUMP JUMPDEST JUMPDEST PUSH3 0x162 DUP5 DUP3 DUP6 PUSH3 0x298 JUMP JUMPDEST POP SWAP4 SWAP3 POP POP POP JUMP JUMPDEST PUSH1 0x0 DUP3 PUSH1 0x1F DUP4 ADD SLT PUSH3 0x182 JUMPI PUSH3 0x181 PUSH3 0x398 JUMP JUMPDEST JUMPDEST DUP2 MLOAD PUSH3 0x194 DUP5 DUP3 PUSH1 0x20 DUP7 ADD PUSH3 0x11F JUMP JUMPDEST SWAP2 POP POP SWAP3 SWAP2 POP POP JUMP JUMPDEST PUSH1 0x0 DUP2 MLOAD SWAP1 POP PUSH3 0x1AE DUP2 PUSH3 0x3BD JUMP JUMPDEST SWAP3 SWAP2 POP POP JUMP JUMPDEST PUSH1 0x0 DUP1 PUSH1 0x0 PUSH1 0x60 DUP5 DUP7 SUB SLT ISZERO PUSH3 0x1D0 JUMPI PUSH3 0x1CF PUSH3 0x3A7 JUMP JUMPDEST JUMPDEST PUSH1 0x0 PUSH3 0x1E0 DUP7 DUP3 DUP8 ADD PUSH3 0x19D JUMP JUMPDEST SWAP4 POP POP PUSH1 0x20 DUP5 ADD MLOAD PUSH8 0xFFFFFFFFFFFFFFFF DUP2 GT ISZERO PUSH3 0x204 JUMPI PUSH3 0x203 PUSH3 0x3A2 JUMP JUMPDEST JUMPDEST PUSH3 0x212 DUP7 DUP3 DUP8 ADD PUSH3 0x16A JUMP JUMPDEST SWAP3 POP POP PUSH1 0x40 PUSH3 0x225 DUP7 DUP3 DUP8 ADD PUSH3 0x19D JUMP JUMPDEST SWAP2 POP POP SWAP3 POP SWAP3 POP SWAP3 JUMP JUMPDEST PUSH1 0x0 PUSH3 0x23B PUSH3 0x24E JUMP JUMPDEST SWAP1 POP PUSH3 0x249 DUP3 DUP3 PUSH3 0x304 JUMP JUMPDEST SWAP2 SWAP1 POP JUMP JUMPDEST PUSH1 0x0 PUSH1 0x40 MLOAD SWAP1 POP SWAP1 JUMP JUMPDEST PUSH1 0x0 PUSH8 0xFFFFFFFFFFFFFFFF DUP3 GT ISZERO PUSH3 0x276 JUMPI PUSH3 0x275 PUSH3 0x369 JUMP JUMPDEST JUMPDEST PUSH3 0x281 DUP3 PUSH3 0x3AC JUMP JUMPDEST SWAP1 POP PUSH1 0x20 DUP2 ADD SWAP1 POP SWAP2 SWAP1 POP JUMP JUMPDEST PUSH1 0x0 DUP2 SWAP1 POP SWAP2 SWAP1 POP JUMP JUMPDEST PUSH1 0x0 JUMPDEST DUP4 DUP2 LT ISZERO PUSH3 0x2B8 JUMPI DUP1 DUP3 ADD MLOAD DUP2 DUP5 ADD MSTORE PUSH1 0x20 DUP2 ADD SWAP1 POP PUSH3 0x29B JUMP JUMPDEST DUP4 DUP2 GT ISZERO PUSH3 0x2C8 JUMPI PUSH1 0x0 DUP5 DUP5 ADD MSTORE JUMPDEST POP POP POP POP JUMP JUMPDEST PUSH1 0x0 PUSH1 0x2 DUP3 DIV SWAP1 POP PUSH1 0x1 DUP3 AND DUP1 PUSH3 0x2E7 JUMPI PUSH1 0x7F DUP3 AND SWAP2 POP JUMPDEST PUSH1 0x20 DUP3 LT DUP2 EQ ISZERO PUSH3 0x2FE JUMPI PUSH3 0x2FD PUSH3 0x33A JUMP JUMPDEST JUMPDEST POP SWAP2 SWAP1 POP JUMP JUMPDEST PUSH3 0x30F DUP3 PUSH3 0x3AC JUMP JUMPDEST DUP2 ADD DUP2 DUP2 LT PUSH8 0xFFFFFFFFFFFFFFFF DUP3 GT OR ISZERO PUSH3 0x331 JUMPI PUSH3 0x330 PUSH3 0x369 JUMP JUMPDEST JUMPDEST DUP1 PUSH1 0x40 MSTORE POP POP POP JUMP JUMPDEST PUSH32 0x4E487B7100000000000000000000000000000000000000000000000000000000 PUSH1 0x0 MSTORE PUSH1 0x22 PUSH1 0x4 MSTORE PUSH1 0x24 PUSH1 0x0 REVERT JUMPDEST PUSH32 0x4E487B7100000000000000000000000000000000000000000000000000000000 PUSH1 0x0 MSTORE PUSH1 0x41 PUSH1 0x4 MSTORE PUSH1 0x24 PUSH1 0x0 REVERT JUMPDEST PUSH1 0x0 DUP1 REVERT JUMPDEST PUSH1 0x0 DUP1 REVERT JUMPDEST PUSH1 0x0 DUP1 REVERT JUMPDEST PUSH1 0x0 DUP1 REVERT JUMPDEST PUSH1 0x0 PUSH1 0x1F NOT PUSH1 0x1F DUP4 ADD AND SWAP1 POP SWAP2 SWAP1 POP JUMP JUMPDEST PUSH3 0x3C8 DUP2 PUSH3 0x28E JUMP JUMPDEST DUP2 EQ PUSH3 0x3D4 JUMPI PUSH1 0x0 DUP1 REVERT JUMPDEST POP JUMP JUMPDEST PUSH2 0x580 DUP1 PUSH3 0x3E7 PUSH1 0x0 CODECOPY PUSH1 0x0 RETURN INVALID PUSH1 0x80 PUSH1 0x40 MSTORE CALLVALUE DUP1 ISZERO PUSH2 0x10 JUMPI PUSH1 0x0 DUP1 REVERT JUMPDEST POP PUSH1 0x4 CALLDATASIZE LT PUSH2 0x36 JUMPI PUSH1 0x0 CALLDATALOAD PUSH1 0xE0 SHR DUP1 PUSH4 0x6CC014DE EQ PUSH2 0x3B JUMPI DUP1 PUSH4 0xA70D5A1B EQ PUSH2 0x5B JUMPI JUMPDEST PUSH1 0x0 DUP1 REVERT JUMPDEST PUSH2 0x43 PUSH2 0x77 JUMP JUMPDEST PUSH1 0x40 MLOAD PUSH2 0x52 SWAP4 SWAP3 SWAP2 SWAP1 PUSH2 0x351 JUMP JUMPDEST PUSH1 0x40 MLOAD DUP1 SWAP2 SUB SWAP1 RETURN JUMPDEST PUSH2 0x75 PUSH1 0x4 DUP1 CALLDATASIZE SUB DUP2 ADD SWAP1 PUSH2 0x70 SWAP2 SWAP1 PUSH2 0x29A JUMP JUMPDEST PUSH2 0x117 JUMP JUMPDEST STOP JUMPDEST PUSH1 0x0 DUP1 PUSH1 0x0 ADD SLOAD SWAP1 DUP1 PUSH1 0x1 ADD DUP1 SLOAD PUSH2 0x8E SWAP1 PUSH2 0x44D JUMP JUMPDEST DUP1 PUSH1 0x1F ADD PUSH1 0x20 DUP1 SWAP2 DIV MUL PUSH1 0x20 ADD PUSH1 0x40 MLOAD SWAP1 DUP2 ADD PUSH1 0x40 MSTORE DUP1 SWAP3 SWAP2 SWAP1 DUP2 DUP2 MSTORE PUSH1 0x20 ADD DUP3 DUP1 SLOAD PUSH2 0xBA SWAP1 PUSH2 0x44D JUMP JUMPDEST DUP1 ISZERO PUSH2 0x107 JUMPI DUP1 PUSH1 0x1F LT PUSH2 0xDC JUMPI PUSH2 0x100 DUP1 DUP4 SLOAD DIV MUL DUP4 MSTORE SWAP2 PUSH1 0x20 ADD SWAP2 PUSH2 0x107 JUMP JUMPDEST DUP3 ADD SWAP2 SWAP1 PUSH1 0x0 MSTORE PUSH1 0x20 PUSH1 0x0 KECCAK256 SWAP1 JUMPDEST DUP2 SLOAD DUP2 MSTORE SWAP1 PUSH1 0x1 ADD SWAP1 PUSH1 0x20 ADD DUP1 DUP4 GT PUSH2 0xEA JUMPI DUP3 SWAP1 SUB PUSH1 0x1F AND DUP3 ADD SWAP2 JUMPDEST POP POP POP POP POP SWAP1 DUP1 PUSH1 0x2 ADD SLOAD SWAP1 POP DUP4 JUMP JUMPDEST PUSH1 0x0 PUSH1 0x40 MLOAD DUP1 PUSH1 0x60 ADD PUSH1 0x40 MSTORE DUP1 DUP6 DUP2 MSTORE PUSH1 0x20 ADD DUP5 DUP2 MSTORE PUSH1 0x20 ADD DUP4 DUP2 MSTORE POP SWAP1 POP DUP1 PUSH1 0x0 DUP1 DUP3 ADD MLOAD DUP2 PUSH1 0x0 ADD SSTORE PUSH1 0x20 DUP3 ADD MLOAD DUP2 PUSH1 0x1 ADD SWAP1 DUP1 MLOAD SWAP1 PUSH1 0x20 ADD SWAP1 PUSH2 0x15E SWAP3 SWAP2 SWAP1 PUSH2 0x172 JUMP JUMPDEST POP PUSH1 0x40 DUP3 ADD MLOAD DUP2 PUSH1 0x2 ADD SSTORE SWAP1 POP POP POP POP POP POP JUMP JUMPDEST DUP3 DUP1 SLOAD PUSH2 0x17E SWAP1 PUSH2 0x44D JUMP JUMPDEST SWAP1 PUSH1 0x0 MSTORE PUSH1 0x20 PUSH1 0x0 KECCAK256 SWAP1 PUSH1 0x1F ADD PUSH1 0x20 SWAP1 DIV DUP2 ADD SWAP3 DUP3 PUSH2 0x1A0 JUMPI PUSH1 0x0 DUP6 SSTORE PUSH2 0x1E7 JUMP JUMPDEST DUP3 PUSH1 0x1F LT PUSH2 0x1B9 JUMPI DUP1 MLOAD PUSH1 0xFF NOT AND DUP4 DUP1 ADD OR DUP6 SSTORE PUSH2 0x1E7 JUMP JUMPDEST DUP3 DUP1 ADD PUSH1 0x1 ADD DUP6 SSTORE DUP3 ISZERO PUSH2 0x1E7 JUMPI SWAP2 DUP3 ADD JUMPDEST DUP3 DUP2 GT ISZERO PUSH2 0x1E6 JUMPI DUP3 MLOAD DUP3 SSTORE SWAP2 PUSH1 0x20 ADD SWAP2 SWAP1 PUSH1 0x1 ADD SWAP1 PUSH2 0x1CB JUMP JUMPDEST JUMPDEST POP SWAP1 POP PUSH2 0x1F4 SWAP2 SWAP1 PUSH2 0x1F8 JUMP JUMPDEST POP SWAP1 JUMP JUMPDEST JUMPDEST DUP1 DUP3 GT ISZERO PUSH2 0x211 JUMPI PUSH1 0x0 DUP2 PUSH1 0x0 SWAP1 SSTORE POP PUSH1 0x1 ADD PUSH2 0x1F9 JUMP JUMPDEST POP SWAP1 JUMP JUMPDEST PUSH1 0x0 PUSH2 0x228 PUSH2 0x223 DUP5 PUSH2 0x3B4 JUMP JUMPDEST PUSH2 0x38F JUMP JUMPDEST SWAP1 POP DUP3 DUP2 MSTORE PUSH1 0x20 DUP2 ADD DUP5 DUP5 DUP5 ADD GT ISZERO PUSH2 0x244 JUMPI PUSH2 0x243 PUSH2 0x513 JUMP JUMPDEST JUMPDEST PUSH2 0x24F DUP5 DUP3 DUP6 PUSH2 0x40B JUMP JUMPDEST POP SWAP4 SWAP3 POP POP POP JUMP JUMPDEST PUSH1 0x0 DUP3 PUSH1 0x1F DUP4 ADD SLT PUSH2 0x26C JUMPI PUSH2 0x26B PUSH2 0x50E JUMP JUMPDEST JUMPDEST DUP2 CALLDATALOAD PUSH2 0x27C DUP5 DUP3 PUSH1 0x20 DUP7 ADD PUSH2 0x215 JUMP JUMPDEST SWAP2 POP POP SWAP3 SWAP2 POP POP JUMP JUMPDEST PUSH1 0x0 DUP2 CALLDATALOAD SWAP1 POP PUSH2 0x294 DUP2 PUSH2 0x533 JUMP JUMPDEST SWAP3 SWAP2 POP POP JUMP JUMPDEST PUSH1 0x0 DUP1 PUSH1 0x0 PUSH1 0x60 DUP5 DUP7 SUB SLT ISZERO PUSH2 0x2B3 JUMPI PUSH2 0x2B2 PUSH2 0x51D JUMP JUMPDEST JUMPDEST PUSH1 0x0 PUSH2 0x2C1 DUP7 DUP3 DUP8 ADD PUSH2 0x285 JUMP JUMPDEST SWAP4 POP POP PUSH1 0x20 DUP5 ADD CALLDATALOAD PUSH8 0xFFFFFFFFFFFFFFFF DUP2 GT ISZERO PUSH2 0x2E2 JUMPI PUSH2 0x2E1 PUSH2 0x518 JUMP JUMPDEST JUMPDEST PUSH2 0x2EE DUP7 DUP3 DUP8 ADD PUSH2 0x257 JUMP JUMPDEST SWAP3 POP POP PUSH1 0x40 PUSH2 0x2FF DUP7 DUP3 DUP8 ADD PUSH2 0x285 JUMP JUMPDEST SWAP2 POP POP SWAP3 POP SWAP3 POP SWAP3 JUMP JUMPDEST PUSH1 0x0 PUSH2 0x314 DUP3 PUSH2 0x3E5 JUMP JUMPDEST PUSH2 0x31E DUP2 DUP6 PUSH2 0x3F0 JUMP JUMPDEST SWAP4 POP PUSH2 0x32E DUP2 DUP6 PUSH1 0x20 DUP7 ADD PUSH2 0x41A JUMP JUMPDEST PUSH2 0x337 DUP2 PUSH2 0x522 JUMP JUMPDEST DUP5 ADD SWAP2 POP POP SWAP3 SWAP2 POP POP JUMP JUMPDEST PUSH2 0x34B DUP2 PUSH2 0x401 JUMP JUMPDEST DUP3 MSTORE POP POP JUMP JUMPDEST PUSH1 0x0 PUSH1 0x60 DUP3 ADD SWAP1 POP PUSH2 0x366 PUSH1 0x0 DUP4 ADD DUP7 PUSH2 0x342 JUMP JUMPDEST DUP2 DUP2 SUB PUSH1 0x20 DUP4 ADD MSTORE PUSH2 0x378 DUP2 DUP6 PUSH2 0x309 JUMP JUMPDEST SWAP1 POP PUSH2 0x387 PUSH1 0x40 DUP4 ADD DUP5 PUSH2 0x342 JUMP JUMPDEST SWAP5 SWAP4 POP POP POP POP JUMP JUMPDEST PUSH1 0x0 PUSH2 0x399 PUSH2 0x3AA JUMP JUMPDEST SWAP1 POP PUSH2 0x3A5 DUP3 DUP3 PUSH2 0x47F JUMP JUMPDEST SWAP2 SWAP1 POP JUMP JUMPDEST PUSH1 0x0 PUSH1 0x40 MLOAD SWAP1 POP SWAP1 JUMP JUMPDEST PUSH1 0x0 PUSH8 0xFFFFFFFFFFFFFFFF DUP3 GT ISZERO PUSH2 0x3CF JUMPI PUSH2 0x3CE PUSH2 0x4DF JUMP JUMPDEST JUMPDEST PUSH2 0x3D8 DUP3 PUSH2 0x522 JUMP JUMPDEST SWAP1 POP PUSH1 0x20 DUP2 ADD SWAP1 POP SWAP2 SWAP1 POP JUMP JUMPDEST PUSH1 0x0 DUP2 MLOAD SWAP1 POP SWAP2 SWAP1 POP JUMP JUMPDEST PUSH1 0x0 DUP3 DUP3 MSTORE PUSH1 0x20 DUP3 ADD SWAP1 POP SWAP3 SWAP2 POP POP JUMP JUMPDEST PUSH1 0x0 DUP2 SWAP1 POP SWAP2 SWAP1 POP JUMP JUMPDEST DUP3 DUP2 DUP4 CALLDATACOPY PUSH1 0x0 DUP4 DUP4 ADD MSTORE POP POP POP JUMP JUMPDEST PUSH1 0x0 JUMPDEST DUP4 DUP2 LT ISZERO PUSH2 0x438 JUMPI DUP1 DUP3 ADD MLOAD DUP2 DUP5 ADD MSTORE PUSH1 0x20 DUP2 ADD SWAP1 POP PUSH2 0x41D JUMP JUMPDEST DUP4 DUP2 GT ISZERO PUSH2 0x447 JUMPI PUSH1 0x0 DUP5 DUP5 ADD MSTORE JUMPDEST POP POP POP POP JUMP JUMPDEST PUSH1 0x0 PUSH1 0x2 DUP3 DIV SWAP1 POP PUSH1 0x1 DUP3 AND DUP1 PUSH2 0x465 JUMPI PUSH1 0x7F DUP3 AND SWAP2 POP JUMPDEST PUSH1 0x20 DUP3 LT DUP2 EQ ISZERO PUSH2 0x479 JUMPI PUSH2 0x478 PUSH2 0x4B0 JUMP JUMPDEST JUMPDEST POP SWAP2 SWAP1 POP JUMP JUMPDEST PUSH2 0x488 DUP3 PUSH2 0x522 JUMP JUMPDEST DUP2 ADD DUP2 DUP2 LT PUSH8 0xFFFFFFFFFFFFFFFF DUP3 GT OR ISZERO PUSH2 0x4A7 JUMPI PUSH2 0x4A6 PUSH2 0x4DF JUMP JUMPDEST JUMPDEST DUP1 PUSH1 0x40 MSTORE POP POP POP JUMP JUMPDEST PUSH32 0x4E487B7100000000000000000000000000000000000000000000000000000000 PUSH1 0x0 MSTORE PUSH1 0x22 PUSH1 0x4 MSTORE PUSH1 0x24 PUSH1 0x0 REVERT JUMPDEST PUSH32 0x4E487B7100000000000000000000000000000000000000000000000000000000 PUSH1 0x0 MSTORE PUSH1 0x41 PUSH1 0x4 MSTORE PUSH1 0x24 PUSH1 0x0 REVERT JUMPDEST PUSH1 0x0 DUP1 REVERT JUMPDEST PUSH1 0x0 DUP1 REVERT JUMPDEST PUSH1 0x0 DUP1 REVERT JUMPDEST PUSH1 0x0 DUP1 REVERT JUMPDEST PUSH1 0x0 PUSH1 0x1F NOT PUSH1 0x1F DUP4 ADD AND SWAP1 POP SWAP2 SWAP1 POP JUMP JUMPDEST PUSH2 0x53C DUP2 PUSH2 0x401 JUMP JUMPDEST DUP2 EQ PUSH2 0x547 JUMPI PUSH1 0x0 DUP1 REVERT JUMPDEST POP JUMP INVALID LOG2 PUSH5 0x6970667358 0x22 SLT KECCAK256 SWAP10 XOR PUSH26 0xFC6A1BE7C0FA074C20888B3E44E2FCC9F082A4DEB2092025B35D DIV 0xB7 JUMP PUSH5 0x736F6C6343 STOP ADDMOD SMOD STOP CALLER "
		},
		"gasEstimates": {
			"creation": {
				"codeDepositCost": "281600",
				"executionCost": "infinite",
				"totalCost": "infinite"
			},
			"external": {
				"change(uint256,string,uint256)": "infinite",
				"s1()": "infinite"
			}
		},
		"methodIdentifiers": {
			"change(uint256,string,uint256)": "a70d5a1b",
			"s1()": "6cc014de"
		}
	},
	"abi": [
		{
			"inputs": [
				{
					"internalType": "uint256",
					"name": "_roll",
					"type": "uint256"
				},
				{
					"internalType": "string",
					"name": "_name",
					"type": "string"
				},
				{
					"internalType": "uint256",
					"name": "_class",
					"type": "uint256"
				}
			],
			"stateMutability": "nonpayable",
			"type": "constructor"
		},
		{
			"inputs": [
				{
					"internalType": "uint256",
					"name": "_roll",
					"type": "uint256"
				},
				{
					"internalType": "string",
					"name": "_name",
					"type": "string"
				},
				{
					"internalType": "uint256",
					"name": "_class",
					"type": "uint256"
				}
			],
			"name": "change",
			"outputs": [],
			"stateMutability": "nonpayable",
			"type": "function"
		},
		{
			"inputs": [],
			"name": "s1",
			"outputs": [
				{
					"internalType": "uint256",
					"name": "roll",
					"type": "uint256"
				},
				{
					"internalType": "string",
					"name": "name",
					"type": "string"
				},
				{
					"internalType": "uint256",
					"name": "class",
					"type": "uint256"
				}
			],
			"stateMutability": "view",
			"type": "function"
		}
	]
}